:0A0FA3000001020203030404050527
:10031900E4F52CF52BF52AF529753350C203C200F3
:10032900C202C201120AD77E087F008E0A8F0B759E
:10033900120875131275080875091C7510087511CE
:100349003575140875154E90E680E030E70E85087E
:100359000C85090D85100E85110F800C85100C85F3
:10036900110D85080E85090FEE54E070030204850E
:10037900752D00752E807E087F008E2F8F30C374F7
:10038900C49FFF74089ECF2402CF3400FEE48F2857
:100399008E27F526F525F524F523F522F521AF2835
:1003A900AE27AD26AC25AB24AA23A922A821C312C6
:1003B9000BA85026E52E2524F582E52D3523F58356
:1003C90074CDF0E5242401F524E43523F523E4353F
:1003D90022F522E43521F52180C4E4F524F523F53D
:1003E90022F521AF28AE27AD26AC25AB24AA23A937
:1003F90022A821C3120BA85031AE23AF24E5302F18
:10040900F582E52F3EF583E0FDE52E2FF582E52DFA
:100419003EF583EDF0EF2401F524E43EF523E435C0
:1004290022F522E43521F52180B9852D0A852E0B87
:1004390074002480FF740834FFFEC3E5139FF5138D
:10044900E5129EF512C3E50D9FF50DE50C9EF50C21
:10045900C3E50F9FF50FE50E9EF50EC3E5099FF560
:1004690009E5089EF508C3E5119FF511E5109EF50C
:1004790010C3E5159FF515E5149EF514E50B241039
:10048900FFE4350A8F82F583E0FF120E85AA06A9DB
:10049900077534018A3589369010877408F07A1007
:1004A9007B877D01AF33120F0E504F7A107B897D08
:1004B90026AF33120EF25042AF33120D59E4F53123
:1004C900F53274892532F58274103531F583E0FDF2
:1004D900E5322401FFE43531FEEF25E0FFEE33FE7E
:1004E900E5362FF582E5353EF583EDF00532E53247
:1004F900700205316420453170C8D2E843D8209094
:10050900E668E04409F090E65CE0443DF0D2AF9043
:10051900E680E020E105D206120E2A90E680E0543A
:10052900F7F0538EF8C203300105120080C2013082
:100539000329120FBD5024C203120EB120001690D8
:10054900E682E030E704E020E1EF90E682E030E681
:1005590004E020E0E4120E59120FBF120C9F80C76D
:1000800090E6B9E0700302015B14700302020424DD
:10009000FE700302029924FB7003020155147003E1
:1000A00002014F147003020143147003020149243A
:1000B000056003020305120FC1400302031190E61D
:1000C000BBE024FE602C14604724FD6016146031F0
:1000D00024067065E50A90E6B3F0E50B90E6B4F00F
:1000E000020311E51290E6B3F0E51390E6B4F002D6
:1000F0000311E50C90E6B3F0E50D90E6B4F00203D1
:1001000011E50E90E6B3F0E50F90E6B4F0020311AE
:1001100090E6BAE0FF120E85AA06A9077B01EA491C
:10012000600DEE90E6B3F0EF90E6B4F002031190AC
:10013000E6A0E04401F002031190E6A0E04401F0E3
:10014000020311120F86020311120FAD02031112E6
:100150000CDF0203111207ED020311120FC340035B
:1001600002031190E6B8E0247F602B14603C240267
:1001700060030201FAA200E433FF25E0FFA202E4DB
:10018000334F90E740F0E4A3F090E68AF090E68BDE
:100190007402F0020311E490E740F0A3F090E68AC5
:1001A000F090E68B7402F002031190E6BCE0547EFE
:1001B000FF7E00E0D3948040067C007D0180047CBB
:1001C000007D00EC4EFEED4F24A3F582740F3EF54A
:1001D00083E493FF3395E0FEEF24A1FFEE34E68F36
:1001E00082F583E0540190E740F0E4A3F090E68AC2
:1001F000F090E68B7402F002031190E6A0E0440157
:10020000F0020311120FC5400302031190E6B8E09B
:1002100024FE601D2402600302031190E6BAE0B4DC
:100220000105C20002031190E6A0E04401F00203C0
:100230001190E6BAE0705990E6BCE0547EFF7E0073
:10024000E0D3948040067C007D0180047C007D002A
:10025000EC4EFEED4F24A3F582740F3EF583E4933C
:10026000FF3395E0FEEF24A1FFEE34E68F82F583A5
:10027000E054FEF090E6BCE05480FF131313541FCB
:10028000FFE0540F2F90E683F0E04420F0020311CA
:1002900090E6A0E04401F08078120FC7507390E61A
:1002A000B8E024FE60202402706790E6BAE0B40152
:1002B00004D200805C90E6BAE06402605490E6A04C
:1002C000E04401F0804B90E6BCE0547EFF7E00E00D
:1002D000D3948040067C007D0180047C007D00EC8E
:1002E0004EFEED4F24A3F582740F3EF583E493FF99
:1002F0003395E0FEEF24A1FFEE34E68F82F583E034
:100300004401F0800C120671500790E6A0E0440111
:08031000F090E6A0E04480F04B
:0103180022C2
:030033000208FCC4
:0408FC0053D8EF32AC
:100800001201000200000040470502100000010232
:1008100003010A060002000000400100090219005D
:1008200001010080320904000001FF0000000705FB
:100830008602000200090219000101008032090449
:10084000000001FF000000070586024000000403CD
:100850000904100343007900700072006500730002
:100860007300220345005A002D005500530042003A
:1008700020004600580032002000500072006F0037
:10088000620061004003330030003000350030006A
:1008900032002D00310036002D00300031002D00D7
:1008A000300030003100320035002D0030003000C3
:1008B00033002D00300032002D00300030003000B9
:0608C000300031000000D1
:0409B800C104C105B0
:100AD70090E6007412F0000000E490E612F00000C7
:100AE7000090E613F000000090E61474E0F00000B8
:100AF70000E490E615F000000090E6047480F00032
:100B070000007402F00000007406F0000000E4F03A
:100B170000000090E618F00000007411F0000000DB
:100B270090E61A740CF0000000120FB512074A4342
:100B3700B2044380045380FB7F017E00120C5E43A6
:100B47008004E490E671F075B4FF75A0FFD204024B
:020B57000BB9D8
:100C9F0030043CE5BB30E73790E6F4E030E030E578
:100CAF00AC20E02B30051400000090E6D07402F069
:100CBF00000000E490E6D1F0000000120ED6000014
:100CCF000075BB06000000E5BB30E7FB000000220B
:020FBD00D3223D
:020FBF00D3223B
:020FC100D32239
:100CDF0090E680E030E71800000090E6247402F000
:100CEF00000000E490E625F0000000D20580160019
:100CFF000000E490E624F000000090E6257440F038
:0D0D0F00000000C20590E6BAE0F51ED322F8
:1007ED0090E740E51EF0E490E68AF090E68B04F089
:0207FD00D32205
:080FAD0090E6BAE0F51CD32226
:100F860090E740E51CF0E490E68AF090E68B04F0EA
:020F9600D32264
:020FC300D32237
:020FC500D32235
:020FC700D32233
:1006710090E678E05410FFC4540F4450F51D13E484
:1006810033F51F90E6B9E0243770030207412409CE
:1006910024F04003020716242E600302074690E669
:1006A100BAE0753900F53AA3E0FEE4EE423990E68E
:1006B100BEE0753B00F53CA3E0FEE4EE423B90E674
:1006C100B8E064406003020748E53C453B6078E4DC
:1006D10090E68AF090E68BF090E6A0E020E1F990B8
:1006E100E68BE0753D00F53EFD7AE779407EE77FD8
:1006F10040AB07AF3AAE39120D8FE53E253AF53AD8
:10070100E53D3539F539C3E53C953EF53CE53B958D
:100711003DF53B80B475B4FF75A0FF90E6B9E0F5F7
:10072100A0000000A3E0FF120F9875A0FFE490E67F
:100731008AF090E68B04F090E6A0E04480F0800718
:08074100120BB98002D322C3A0
:01074900228D
:100F2A00C0E0C083C082D2015391EF90E65D7401A4
:080F3A00F0D082D083D0E03238
:100F5A00C0E0C083C0825391EF90E65D7404F0D084
:060F6A0082D083D0E032CA
:100F7000C0E0C083C0825391EF90E65D7402F0D070
:060F800082D083D0E032B4
:1008C600C0E0C083C08285100C85110D850D828520
:1008D6000C83A37402F085080E85090F850F8285A7
:1008E6000E83A37407F05391EF90E65D7410F0D079
:0608F60082D083D0E03245
:100F4200C0E0C083C082D2035391EF90E65D740883
:080F5200F0D082D083D0E03220
:100D1C00C0E0C083C08290E680E030E72085080CFC
:100D2C0085090D850D82850C83A37402F085100E48
:100D3C0085110F850F82850E83A37407F05391EFF5
:0D0D4C0090E65D7420F0D082D083D0E032BC
:0107FF0032C7
:010FC90032F5
:010FCA0032F4
:010FCB0032F3
:010FCC0032F2
:010FCD0032F1
:010FCE0032F0
:010FCF0032EF
:010FD00032EE
:010FD10032ED
:010FD20032EC
:010FD30032EB
:010FD40032EA
:010FD50032E9
:010FD60032E8
:010FD70032E7
:010FD80032E6
:010FD90032E5
:010FDA0032E4
:010FDB0032E3
:010FDC0032E2
:010FDD0032E1
:010FDE0032E0
:010FDF0032DF
:010FE00032DE
:010FE10032DD
:010FE20032DC
:010FE30032DB
:010FE40032DA
:010FE50032D9
:010FE60032D8
:010FE70032D7
:010FE80032D6
:010FE90032D5
:010FEA0032D4
:010FEB0032D3
:100ED60090E6C67483F000000090E6C87409F0003E
:0C0EE600000090E6C9740FF0000000222C
:010FEC0022E2
:0B0F9800E5BB30E7FB90E6F1EFF02234
:060C1500AB07AA06AC05C6
:100C1B00E4FDE51F6010EA7E000DEE24AFF582E4E3
:100C2B003410F583EAF0EBAE050D74AF2EF582E4CC
:100C3B003410F583EBF0AF050D74AF2FF582E43470
:100C4B0010F583ECF07A107BAFAF1D120F0EAF1DBA
:030C5B00020D592E
:0A0D8F008E3F8F408D418A428B4356
:100D9900E4F544E544C3954150200540E540AE3FA4
:100DA9007002053F14FFE5432544F582E43542F519
:0A0DB90083E0FD120C15054480D9FB
:010DC300220D
:100BB90090E6487406F075B4FF75A0FF75A0C97F6B
:100BC900017E00120C5E7F017E00120C5E7F017EA9
:100BD90000120C5E000000E490E698F0000000F0BE
:100BE90090E6047480F00000007406F0000000E450
:100BF900F075A0FF90E74074C9F0E490E68AF090A0
:0C0C0900E68B04F090E6A0E04480F022AE
:1009BC00608010000101013B0101010700000003F0
:1009CC0000000000FFFDF9FFFFFFFFFF002D2D2DA4
:1009DC00122D123F01390101010101070003000032
:1009EC0000000000FFFFFFFFFFFFFFFF002D242D85
:1009FC00122D123F01040101010101070002000048
:100A0C0000000000FFFEFFFFFFFFFFFF00091212B6
:100A1C00002D123F01040101010101070002000039
:100A2C0000000000FFFEFFFFFFFFFFFF0009121296
:0E0A3C00002D123F471080C00000FF06E4119D
:10074A0090E60174E6F090E6F574FFF090E6F37433
:10075A00E0F0901081E090E6C3F0901082E090E61D
:10076A00C1F0901083E090E6C2F0901085E090E628
:10077A00C0F0901086E090E6F4F000000090E6D217
:10078A007401F000000090E6E204F000000090E638
:10079A00C77436F000000090E6CB7404F000000045
:1007AA0090E60C7401F000000090E6CC7403F000AF
:1007BA00000090E6CD14F000000075AF077410F544
:1007CA009A7400F59B759DE4E4F59EFF90E67BE044
:1007DA0090E67CF00FBF80F490E672E04480F0432C
:0207EA00B680D7
:0107EC0022EA
:100E590090E682E030E004E020E60B90E682E030A4
:100E6900E119E030E71590E680E04401F07F147E57
:0C0E790000120C5E90E680E054FEF022B7
:100EB10090E682E044C0F090E681F04387010000B3
:040EC100000000220B
:100E2A0030060990E680E0440AF0800790E680E008
:100E3A004408F07FDC7E05120C5E90E65D74FFF0DC
:0F0E4A0090E65FF05391EF90E680E054F7F022CE
:100C5E008E3F8F4090E600E05418700DE53FC313B1
:100C6E00F53FE54013F540801590E600E05418FF7F
:100C7E00BF100BE54025E0F540E53F33F53FE5407D
:100C8E001540AE3F7002153F4E6005120EC580EE48
:010C9E002233
:080FB500E4F51BD2E9D2AF22E2
:100D590090E678E020E6F9C2E990E678E04480F090
:100D6900EF25E090E679F090E678E030E0F990E65A
:100D790078E04440F090E678E020E6F990E678E003
:060D890030E1D6D2E922A0
:100DF800A90790E678E020E6F9E51B702390E678ED
:100E0800E04480F0E925E090E679F08D16AF03A97B
:100E1800077517018A188919E4F51A751B01D32279
:020E2800C322E3
:100DC400A90790E678E020E6F9E51B702590E6781F
:100DD400E04480F0E925E0440190E679F08D16AF17
:100DE40003A9077517018A188919E4F51A751B03F5
:040DF400D322C32221
:03004B0002056942
:10056900C0E0C083C082C085C084C086758600C0D3
:10057900D075D000C000C001C002C003C006C007CA
:1005890090E678E030E206751B0602065390E6789D
:10059900E020E10CE51B64026006751B07020653A7
:1005A900E51B24FE605F14603624FE7003020644D6
:1005B90024FC700302065024086003020653AB179B
:1005C900AA18A919AF1A051A8F82758300120B5937
:1005D90090E679F0E51A65167070751B05806B90C9
:1005E900E679E0AB17AA18A919AE1A8E82758300AD
:1005F900120B86751B02E5166401704E90E678E0D1
:100609004420F08045E51624FEB51A0790E678E007
:100619004420F0E51614B51A0A90E678E04440F053
:10062900751B0090E679E0AB17AA18A919AE1A8EC6
:1006390082758300120B86051A800F90E678E044D4
:1006490040F0751B008003751B005391DFD007D064
:1006590006D003D002D001D000D0D0D086D084D02B
:0806690085D082D083D0E0327D
:020E8500A907BB
:100E8700AE14AF158F828E83A3E064037017AD0194
:100E970019ED7001228F828E83E07C002FFDEC3EDE
:090EA700FEAF0580DF7E007F0034
:010EB000221F
:100EF200120DC4E51B24FA600E146006240770F379
:0C0F0200D322E4F51BD322E4F51BD3221C
:100F0E00120DF8E51B24FA600E146006240770F328
:0C0F1E00D322E4F51BD322E4F51BD32200
:100EC5007400F58690FDA57C05A3E582458370F940
:010ED50022FA
:03004300020900AF
:030053000209009F
:10090000020F2A00020F7000020F5A00020F42006D
:100910000208C600020D1C000207FF00020FC900FA
:10092000020FCA00020FCB00020FCC00020FCD0055
:10093000020FCE00020FCF00020FD000020FD10035
:10094000020FD200020FC900020FD300020FD40021
:10095000020FD500020FD600020FD700020FD800F9
:10096000020FD900020FC900020FC900020FC9000F
:10097000020FDA00020FDB00020FDC00020FDD00C5
:10098000020FDE00020FDF00020FE000020FE100A5
:10099000020FE200020FE300020FE400020FE50085
:1009A000020FE600020FE700020FE800020FE90065
:0809B000020FEA00020FEB0048
:03000000020A4BA6
:0C0A4B00787FE4F6D8FD758144020A9221
:100B5900BB010CE58229F582E5833AF583E0225051
:100B690006E92582F8E622BBFE06E92582F8E2229B
:0D0B7900E58229F582E5833AF583E49322B5
:100B8600F8BB010DE58229F582E5833AF583E8F0A5
:100B9600225006E92582C8F622BBFE05E92582C851
:020BA600F22239
:100BA800EB9FF5F0EA9E42F0E99D42F0E89C45F0A3
:010BB800221A
:100A5700020319E493A3F8E493A34003F68001F299
:100A670008DFF48029E493A3F85407240CC8C333A0
:100A7700C4540F4420C8834004F456800146F6DF6F
:100A8700E4800B01020408102040809009B8E47E3E
:100A9700019360BCA3FF543F30E509541FFEE49364
:100AA700A360010ECF54C025E060A840B8E493A32B
:100AB700FAE493A3F8E493A3C8C582C8CAC583CA56
:100AC700F0A3C8C582C8CAC583CADFE9DEE780BE0E
:010A4A0000AB
:00000001FF
